:100000000C9468000C944B050C9424050C949000FF
:100010000C9490000C9490000C9490000C94900020
:100020000C9490000C9490000C9490000C94900010
:100030000C9490000C9490000C9490000C94900000
:100040000C94DA040C9490000C94A8040C94820490
:100050000C9490000C9490000C9490000C949000E0
:100060000C9472050C9490000000000025002800FC
:100070002B00040404040404040402020202020229
:10008000030303030303010204081020408001025C
:1000900004081020010204081020000000080002DB
:1000A0000100000304070000000000000000070436
:1000B00002220506000103103021131211313A37D4
:1000C000353428292324161B11100E0D0C02A0060E
:1000D00011241FBECFEFD8E0DEBFCDBF11E0A0E0FE
:1000E000B1E0E6E3F3E102C005900D92A637B10757
:1000F000D9F722E0A6E7B1E001C01D92AA3FB207FE
:10010000E1F710E0C8E6D0E004C02197FE010E94AC
:100110008E09C736D107C9F70E94D9060C949909F0
:100120000C9400002091330290913202213208F0A9
:100130004AC080910F028111FCCF32E030930F0250
:1001400031E030930E023FEF30930D0210920C021B
:1001500020930B02A2E1B2E04BEE51E0FA013E2FF8
:10016000341B321718F43D913193F9CF1092EA0104
:100170002091EA01990F922B9093EA019091E90165
:10018000913061F41092E9019091EA019093BB00E3
:100190009091BC0093FDF8CF95EC01C095EE909343
:1001A000BC0090910F029230E1F390910D029F3FBD
:1001B00079F080910D02803241F080910D02803300
:1001C00031F084E005C081E003C082E001C083E03B
:1001D0001092110210923302109210020895803191
:1001E00008F5E82FF0E0E254FF4FE491AE2FB0E0C5
:1001F00084E0B595A7958A95E1F7AA0FBB1FA35296
:10020000BD4FEF7081E090E002C0880F991FEA9522
:10021000E2F7809590952D913C911197822393233D
:100220008D939C9308958031F8F4E82FF0E0E25428
:10023000FF4FE491AE2FB0E084E0B595A7958A9585
:10024000E1F7AA0FBB1FA352BD4FEF7081E090E012
:1002500002C0880F991FEA95E2F72D913C91119702
:10026000822B932B8D939C930895F89481E0809337
:10027000E80178940895F89481E0809304017894DB
:100280000895CF92DF92EF92FF920F931F93CF9337
:10029000DF936C017A018B01C0E0D0E0CE15DF0561
:1002A00089F0D8016D918D01D601ED91FC910190FD
:1002B000F081E02DC6010995892B11F47E0102C061
:1002C0002196ECCFC701DF91CF911F910F91FF9045
:1002D000EF90DF90CF900895FC01538D448D252F32
:1002E00030E0842F90E0821B930B541710F0CF96D0
:1002F000089501970895FC01918D828D981761F002
:10030000828DDF01A80FB11D5D968C91928D9F5F4C
:100310009F73928F90E008958FEF9FEF0895FC01F7
:10032000918D828D981731F0828DE80FF11D858DAA
:1003300090E008958FEF9FEF0895FC01918D228D3D
:10034000892F90E0805C9F4F821B91098F739927C2
:10035000089584E392E00E949D0121E0892B09F435
:1003600020E0822F0895FC01848DDF01A80FB11DCC
:10037000A35ABF4F2C91848D90E001968F739927DB
:10038000848FA689B7892C93A089B1898C918064C8
:100390008C93938D848D981306C00288F389E02D89
:1003A00080818F7D80830895EF92FF920F931F933A
:1003B000CF93DF93EC0181E0888F9B8D8C8D981318
:1003C00005C0E889F989808185FD24C0F62E0B8D52
:1003D00010E00F5F1F4F0F731127E02E8C8DE81276
:1003E0000CC00FB607FCFACFE889F989808185FF38
:1003F000F5CFCE010E94B301F1CF8B8DFE01E80F46
:10040000F11DE35AFF4FF0820B8FEA89FB8980814F
:10041000806207C0EE89FF896083E889F98980815D
:100420008064808381E090E0DF91CF911F910F91F4
:10043000FF90EF900895CF93DF93EC01888D882390
:10044000C9F0EA89FB89808185FD05C0A889B98941
:100450008C9186FD0FC00FB607FCF5CF808185FF1C
:10046000F2CFA889B9898C9185FFEDCFCE010E948A
:10047000B301E7CFDF91CF91089580E090E0892B21
:1004800029F00E94A90181110C940000089590E0C8
:10049000FC01E656FF4F3491FC01EA57FF4F2491CF
:1004A000FC01EE58FF4FE491EE2309F43BC03323E7
:1004B00039F1333091F038F43130A9F0323001F5B0
:1004C00084B58F7D12C0373091F03830A1F03430D0
:1004D000B9F4809180008F7D03C0809180008F7778
:1004E000809380000DC084B58F7784BD09C0809152
:1004F000B0008F7703C08091B0008F7D8093B000F3
:10050000F0E0EE0FFF1FE859FF4FA591B4918FB7B0
:10051000F894EC91611103C020952E2301C02E2B7D
:100520002C938FBF08953FB7F8948091C2019091AA
:10053000C301A091C401B091C50126B5A89B05C017
:100540002F3F19F00196A11DB11D3FBFBA2FA92F52
:10055000982F8827820F911DA11DB11DBC01CD01CF
:1005600042E0660F771F881F991F4A95D1F70895BB
:100570008F929F92AF92BF92CF92DF92EF92FF92B3
:100580006B017C010E9493024B015C01C114D104F8
:10059000E104F104F1F00E949302DC01CB0188191F
:1005A0009909AA09BB09883E9340A105B10570F3DA
:1005B00021E0C21AD108E108F10888EE880E83E034
:1005C000981EA11CB11CC114D104E104F10419F757
:1005D000DDCFFF90EF90DF90CF90BF90AF909F90D6
:1005E0008F900895089585ED8093BC008091BC00A4
:1005F00084FDFCCF10920F02089540919801262FA0
:1006000030E0240F311D21323105DCF420910F023E
:100610002430C9F4FC0180E090E0861758F4309152
:1006200098012191DC01AA58BE4FA30FB11D2C9354
:100630000196F3CF80919801680F6093980180E054
:10064000089581E0089582E008950895E091C7013A
:100650008091C601E81730F4F0E0E853FE4F808146
:1006600090E008958FEF9FEF08959091C7018091DA
:10067000C601981750F4E92FF0E0E853FE4F2081AF
:1006800030E09F5F9093C70102C02FEF3FEFC90199
:1006900008958091C60190E02091C701821B9109C5
:1006A0000895CF92DF92EF92FF920F931F93CF9313
:1006B000DF937C01262F972F8A01809110028823D7
:1006C00091F0C62FD72F6E01C40ED51ECC15DD05B7
:1006D00071F06991D701ED91FC910190F081E02DCD
:1006E000C7010995F3CF642F822F0E94FD02C80134
:1006F000DF91CF911F910F91FF90EF90DF90CF90FE
:100700000895CF93DF931F92CDB7DEB76983209111
:1007100010022223D1F020913302203240F021E058
:1007200030E0FC013383228380E090E015C08091AB
:100730001102E82FF0E0EE5EFD4F998190838F5F0C
:10074000809311028093330205C061E0CE010196CF
:100750000E94FD0281E090E00F90DF91CF9108951B
:100760000F931F93CF93DF938091F90291E09093C1
:10077000100280933202109211021092330260E054
:1007800081ED92E00E948103CDEDD2E08E0168817F
:1007900081ED92E00E9481032296F801618181ED52
:1007A00092E00E948103F2E0CD3EDF0779F7DF910E
:1007B000CF911F910F910C949200682F81ED92E0E0
:1007C0000C948103089580E090E00895009769F00B
:1007D000FC0101900020E9F73197AF01481B590B4C
:1007E000BC0184E392E00C94410180E090E0089524
:1007F000CF93DF930E94E603EC0189E291E00E942F
:10080000E6038C0F9D1FDF91CF9108958F929F92E9
:10081000AF92BF920F931F93CF93DF93CDB7DEB705
:10082000A1970FB6F894DEBF0FBECDBF19A242301C
:1008300008F44AE08E010F5D1F4F842E912CA12CED
:10084000B12CA50194010E946C09E62FB901CA01DF
:1008500001501109EA3014F4E05D01C0E95CD801EF
:10086000EC93232B242B252B61F7C8010E94E60370
:10087000A1960FB6F894DEBF0FBECDBFDF91CF912A
:100880001F910F91BF90AF909F908F900895CF923E
:10089000DF92EF92FF92CF93DF936C01990FEE08F6
:1008A000FF08F7FE1AC0E0913402F0913502019082
:1008B000F081E02D6DE284E392E00995EC0166277A
:1008C0007727CB016C197D098E099F094AE00E94A8
:1008D00006047C01EC0EFD1E06C04AE0C701B6010D
:1008E0000E9406047C0189E291E00E94E6038E0DDD
:1008F0009F1DDF91CF91FF90EF90DF90CF900895F3
:100900000E9494091F920F920FB60F9211242F93F9
:100910003F934F935F936F937F938F939F93AF9387
:10092000BF93EF93FF9384E392E00E94B301FF91A2
:10093000EF91BF91AF919F918F917F916F915F9157
:100940004F913F912F910F900FBE0F901F901895D0
:100950001F920F920FB60F9211242F938F939F9394
:10096000EF93FF93E0914402F09145028081E09182
:100970004A02F0914B0282FD12C0908180914D029B
:100980008F5F8F7320914E02821751F0E0914D02DC
:10099000F0E0EC5CFD4F958F80934D0201C08081AB
:1009A000FF91EF919F918F912F910F900FBE0F901C
:1009B0001F9018951F920F920FB60F9211242F932C
:1009C0003F938F939F93AF93BF938091BE0190917C
:1009D000BF01A091C001B091C1013091BD0123E0E0
:1009E000230F2D3720F40196A11DB11D05C026E867
:1009F000230F0296A11DB11D2093BD018093BE015E
:100A00009093BF01A093C001B093C1018091C20136
:100A10009091C301A091C401B091C5010196A11D9F
:100A2000B11D8093C2019093C301A093C401B09300
:100A3000C501BF91AF919F918F913F912F910F90E1
:100A40000FBE0F901F9018951F920F920FB60F9226
:100A500011242F933F934F935F936F937F938F93C3
:100A60009F93AF93BF93EF93FF93E0910201F091B7
:100A700003010995FF91EF91BF91AF919F918F91E4
:100A80007F916F915F914F913F912F910F900FBE8A
:100A90000F901F9018951F920F920FB60F9211246E
:100AA0002F933F934F935F936F937F938F939F9376
:100AB000AF93BF93EF93FF93E0910001F091010199
:100AC0000995FF91EF91BF91AF919F918F917F9188
:100AD0006F915F914F913F912F910F900FBE0F90AB
:100AE0001F9018951F920F920FB60F9211242F93FB
:100AF0003F934F935F936F937F938F939F93AF93A6
:100B0000BF93EF93FF938091B900887F803609F4FB
:100B10009CC068F5883209F45BC090F4803109F418
:100B200054C038F4882309F4F6C0883009F44DC065
:100B3000F6C0883109F44CC0803209F45DC0EFC0C2
:100B4000803409F468C048F4803309F455C0883310
:100B500009F0E5C080930D02D8C0803509F44FC07C
:100B6000883509F45DC0883409F0D9C0D6C0883909
:100B700009F4C7C0A8F4883709F467C038F4883688
:100B800009F463C0803709F460C0C9C0883809F42B
:100B9000B8C0803909F45FC0803809F0C0C05BC0BC
:100BA000803B09F486C038F4803A09F466C0883A7C
:100BB00009F47FC0B4C0803C09F4A7C0883C09F4A4
:100BC000A4C0883B09F48AC0AAC08091EA0110C081
:100BD00090910C0280910B02981770F5E0910C0235
:100BE00081E08E0F80930C02F0E0E551FE4F808192
:100BF0008093BB0085EC86C080930D028EC0E0918F
:100C00000C0281E08E0F80930C028091BB00F0E01B
:100C1000E551FE4F808390910C0280910B026EC0D3
:100C2000E0910C0281E08E0F80930C028091BB005A
:100C3000F0E0E551FE4F808380910E0281116DC07E
:100C400081E08093E90184EA61C083E080930F0230
:100C50001092BC01CFCF8091BC01803208F051C00E
:100C6000E091BC0181E08E0F8093BC018091BB00BC
:100C7000F0E0E456FE4F8083BDCF85EC8093BC004E
:100C800010920F028091BC01803230F4E091BC01DF
:100C9000F0E0E456FE4F10826091BC0170E0E091FC
:100CA0009A01F0919B018CE991E009951092BC01A9
:100CB00036C084E080930F0210929901109298013F
:100CC000E0919601F0919701099580919801811129
:100CD00005C081E08093980110927601E09199011E
:100CE00081E08E0F80939901F0E0EA58FE4F8081F9
:100CF0008093BB009091990180919801981708F416
:100D000079CF85E88093BC000AC085EC8093BC0055
:100D100010920F0204C010920D020E94F302FF9184
:100D2000EF91BF91AF919F918F917F916F915F9163
:100D30004F913F912F910F900FBE0F901F901895DC
:100D4000E4E3F2E01382128288EE93E0A0E0B0E0E8
:100D500084839583A683B78329E031E031832083A0
:100D600025EC30E03587248724EC30E03787268770
:100D700020EC30E0318B208B21EC30E0338B228B68
:100D800022EC30E0358B248B26EC30E0378B268B41
:100D9000118E128E138E148EE1EDF2E01382128208
:100DA00084839583A683B7838BE191E091838083CD
:100DB0000895789484B5826084BD84B5816084BDD3
:100DC00085B5826085BD85B5816085BD80916E00E9
:100DD000816080936E00109281008091810082601A
:100DE0008093810080918100816080938100809157
:100DF00080008160809380008091B1008460809346
:100E0000B1008091B00081608093B00080917A0041
:100E1000846080937A0080917A00826080937A0067
:100E200080917A00816080937A0080917A00806856
:100E300080937A001092C100E0914402F091450243
:100E400082E08083E0914002F09141021082E091C3
:100E50004202F09143028FEC808310924C02E091A9
:100E60004802F091490286E08083E0914602F091C9
:100E70004702808180618083E0914602F0914702C1
:100E8000808188608083E0914602F09147028081F2
:100E900080688083E0914602F091470280818F7DD7
:100EA000808380E78093F9021092C7011092C601F7
:100EB000109211021092330210920F02C1E0C093FF
:100EC0000E021092E90161E082E10E94470261E0B6
:100ED00083E10E9447028091B9008E7F8093B90020
:100EE0008091B9008D7F8093B90088E48093B80029
:100EF00085E48093BC008091F902C0931002809336
:100F00003202109211021092330281E290E00E94AC
:100F1000DD030E9492008091F902C0931002809339
:100F20003202109211021092330281E890E00E9486
:100F3000DD030E9492008091F902C0931002809319
:100F4000320210921102109233028FEE90E00E9452
:100F5000DD030E9492008091F902C09310028093F9
:100F60003202109211021092330281EA90E00E9444
:100F7000DD030E94920080E1EDEDF2E0DF011D92C1
:100F80008A95E9F70E94B00384B1807F84B987B164
:100F90008F6087B985E391E090930301809302010C
:100FA000809169008C6080936900E99A8BE391E0FD
:100FB0009093010180930001809169008360809388
:100FC0006900E89A8CE291E00E94F80382E491E0E3
:100FD0000E94F803C0E08C2F0E9413010E94B0030E
:100FE00062E370E080E090E00E94B802CF5FC03121
:100FF00091F78BE491E00E94F803C0E08C2F0E94EF
:10100000EF000E94B00362E370E080E090E00E9495
:10101000B802CF5FC03191F788E591E00E94F803F4
:1010200066E0662E11E055245A9475E0472EE8ECF0
:10103000AE2EE1E0BE2E8DEE92E006E0080F83EFCB
:1010400092E0F6E07F2E780EA3E28A2E912C6EE1DC
:1010500070E080E090E00E94B8028091E80188236F
:10106000A1F0C3B1D0E0C031D1050CF02F978EE6CE
:1010700091E00E94E603CE010E9447048C2F0E945B
:1010800013010E94B0031092E801809104018823AB
:10109000A1F0C3B1D0E0C031D1050CF02F9780E7AB
:1010A00091E00E94E603CE010E9447048C2F0E942B
:1010B000EF000E94B00310920401EDEEF2E0A3EF06
:1010C000B2E0862D01900D928A95E1F78091F902A8
:1010D0001093100280933202109211021092330288
:1010E00080E490E00E94DD030E9492008091F9026A
:1010F00090910F029111FCCF10930F0210930E02EA
:1011000050920D0210920C0240920B021093EA01D1
:101110009091EA01880F892B8093EA018091E9017F
:10112000813061F41092E9018091EA018093BB0063
:101130008091BC0083FDF8CF85EC01C085EE8093E3
:10114000BC0080910F028130E1F380910C02863067
:1011500018F480910C0201C086E0ABEEB1E0E8EC3F
:10116000F1E09E2F9A19981718F49D919193F9CF59
:101170001092C7018093C601CDEED2E081ED92E0DE
:101180000E94350389930C13F9CFE3EFF2E09191BC
:10119000DF0117978C91981303C07E12F8CF99C086
:1011A000C12CD12C76013C2CE601C255DF4FFE014B
:1011B00034912491E22FF0E044E0F595E7954A95CB
:1011C000E1F7E352FD4F868990E02F7002C09595BC
:1011D00087952A95E2F7282F2170E32FF0E054E05D
:1011E000F595E7955A95E1F7E352FD4F808990E038
:1011F0003F7002C0959587953A95E2F78170281760
:10120000A8F482E791E00E94E6034AE0C701B60134
:101210000E94060489E291E00E94E60360E08DE00E
:101220000E944702C8B88C2D0E941301FE01249130
:10123000C491E22FF0E084E0F595E7958A95E1F717
:10124000E352FD4F808990E02F7002C095958795FD
:101250002A95E2F7282F2170EC2FF0E094E0F59525
:10126000E7959A95E1F7E352FD4F868990E0CF70BC
:1012700002C095958795CA95E2F781702817D8F432
:1012800084E791E00E94E6034AE0C701B6010E94AC
:10129000060489E291E00E94E60361E08DE00E948D
:1012A0004702C4010197F1F760E08DE00E94470218
:1012B000832D0E94EF00FFEFCF1ADF0AEF0AFF0A2B
:1012C00080E1C816D104E104F10409F06CCF0E945A
:1012D000B0030E943D02BBCEA1E21A2EAA1BBB1B8B
:1012E000FD010DC0AA1FBB1FEE1FFF1FA217B307F2
:1012F000E407F50720F0A21BB30BE40BF50B661F08
:10130000771F881F991F1A9469F7609570958095CB
:1013100090959B01AC01BD01CF010895EE0FFF1F19
:101320000590F491E02D099481E090E0F8940C94FC
:061330009909F894FFCFBB
:10133600F202F2020100000000D40141016C011B1F
:10134600029D017B018F010000000081035103E330
:101356000325034903350326030D0A00494E495464
:1013660049414C2050524F4752414D20535441520F
:1013760054004C45445320534554004C4544532097
:10138600434C45415245440050494E2020202020E0
:10139600532F4320202020202053544154555300DE
:0613A600430076005E002A
:00000001FF
